:020000040800F2
:100000007004002001010008D71500086D120008D7
:10001000D5150008A10700082B18000800000000F3
:100020000000000000000000000000004B16000867
:10003000A307000800000000D91500084D160008AD
:100040001B0100081B0100081B0100081B01000820
:100050001B0100081B0100081B0100081B01000810
:100060001B0100081B0100081B0100081B01000800
:100070001B0100081B0100081B0100081B010008F0
:100080001B0100081B0100081B0100081B010008E0
:100090001B0100081B0100081B0100081B010008D0
:1000A0001B0100081B0100081B0100081B010008C0
:1000B0001B0100081B0100081B0100081B010008B0
:1000C0001B0100081B0100081B0100081B010008A0
:1000D0001B0100081B0100081B0100081B01000890
:1000E0001B0100081B0100081B010008DFF80CD0F1
:1000F00000F0C6FA00480047E5210008700400201F
:100100000648804706480047FEE7FEE7FEE7FEE7B1
:10011000FEE7FEE7FEE7FEE7FEE7FEE7AF160008B4
:10012000ED000008202A04DB203A21FA02F0002129
:10013000704721FA02F3D040C2F1200291400843F7
:1001400019467047D2B201E000F8012B491EFBD2DC
:1001500070470022F6E710B513460A4604461946D2
:10016000FFF7F0FF204610BD30B480EA010202F034
:10017000004530F0004221F0004013D090B1C30D93
:10018000D40DC2F31601C0F31600E41A41F40001C5
:1001900040F400027D34914201D3641C00E0490028
:1001A000002C02DA30BC002070474FF4000000231E
:1001B000914201D3891A034340084FEA4101F7D124
:1001C00051B1914202D14FF0004105E002D24FF00F
:1001D000010101E06FF0010103EBC450284430BC81
:1001E00000F05FB896230022114600F063B800F0DB
:1001F000004230F000400AD0C10D01F56071C0F33B
:10020000160042EA0151C20840071143704700201E
:100210000146704730B50B460146002020220124DC
:1002200009E021FA02F59D4205D303FA02F5491BC4
:1002300004FA02F52844151EA2F10102F1DC30BDDA
:100240002DE9F05F0546002092469B46884606460B
:10025000814640241BE02846414647462246FFF798
:1002600061FF53465A46C01A914110D311461846B1
:10027000224600F017FA2D1A67EB01084F46224676
:100280000120002100F00EFA17EB00094E41201E5C
:10029000A4F10104DFDC484631462A464346BDE866
:1002A000F09F0029A8BF7047401C490008BF20F0FC
:1002B0000100704710B4B0FA80FC00FA0CF050EA6C
:1002C000010404BF10BC704749B1CCF1200421FAED
:1002D00004F411FA0CF118BF012121430843A3EBE8
:1002E0000C01CB1D4FEA00614FEA102042BF0020F5
:1002F00010BC704700EBC35010440029A4BF10BCD1
:100300007047401C490008BF20F0010010BC704736
:100310002DE9FE4F804681EA0300C00F0C46009095
:1003200021F0004123F00045B8EB0200A94105D2BD
:100330004046214690461C460B46024623F00040AC
:10034000104347D0270DC7F30A00C3F30A510290A8
:10035000401A019040286BDAC3F3130040F4801B6D
:100360000098924620B10023D2EB030A63EB0B0BFB
:1003700001985946C0F14002504600F093F90646F4
:100380000D4650465946019A00F09BF910EB0800C3
:100390006141002487EA115284EAE7731A4340D08E
:1003A000009A62B3019A012A4FEA075215DC001B3A
:1003B00061EB02014FF0004202EA0752CDE9004230
:1003C000001C41F5801132462B4600F09BF903B02A
:1003D000BDE8F08F40462146F9E7001B61EB0201C2
:1003E000001C41F5801300185B412018A2F500178E
:1003F00047EB030140EAD570B6196D4111E06D0875
:100400004FEA360645EAC0754FEA0752001B61EB1A
:100410000201001C41F5801149084FEA3000001923
:10042000514132462B4603B0BDE8F04F00F05BB9B6
:100430000098012240000023D0EB020263EBE0733E
:10044000009821464FEAE074B8EB000061EB04012C
:10045000E9E783F000435BE781F0004158E72DE9CD
:10046000FE4F81EA030404F0004421F000410094AF
:100470004FF0000B23F0004350EA01045ED052EA33
:1004800003045BD0C3F30A54C1F30A552C44A4F20D
:10049000F3340194A0FB0254C1F3130141F4801121
:1004A000C3F3130343F4801301FB024400FB034E28
:1004B000840A970A44EA815447EA8357A4FB0768F1
:1004C00002958D0A05FB07854FEA932C04FB0C541B
:1004D0002705029D4FEA065847EA1637B5EB08058F
:1004E0006EEB070C870E920E47EA811742EA8312E1
:1004F000A7FB0201B6EB0B0164EB00042B0D43EAF2
:100500000C335E1844EB1C50DA465146E7FB0201FF
:10051000C5F313044FEA0B3343EA14534FEA043292
:10052000019C43EA0603A4F10C040294009CCDE96B
:1005300000B400F0E7F803B0BDE8F08F00200146FA
:10054000F9E72DE9F04D81EA030404F0004B21F0B6
:10055000004514464FF0000A23F0004150EA05021E
:1005600020D054EA01021DD0C5F30A570246C5F354
:100570001303C1F31300C1F30A5640F4801543F48A
:100580008013A7EB0608101BD64608F2FD3873EB64
:10059000050002D308F1010801E092185B41B8F1AF
:1005A000000F03DA00200146BDE8F08D00204FF473
:1005B0008011064684460EE0171B73EB050705D332
:1005C000121B63EB050306434CEA010C49084FEA92
:1005D000300092185B4150EA0107EDD152EA030066
:1005E00012D082EA040083EA0501084305D0101BFB
:1005F000AB4106D20122002306E000224FF0004367
:1006000002E06FF0010253101AEB06004CEB0851A8
:1006100010EB0A0041EB0B01BDE8F04D00F063B8B0
:10062000C1F30A52C1F3130140F2FF3341F48011C8
:100630009A4202DA00200146704740F233439A4260
:10064000A2F2334202DC5242FFF76CBD00F02AB83E
:1006500030B5041E71F1000404DB4FF00044404249
:1006600064EB0101141E73F1000405DB1C464FF01E
:100670000043524263EB0403994208BF904230BDED
:10068000064C074D06E0E06840F0010394E80700DF
:1006900098471034AC42F6D3FFF72CFDBC2200087B
:1006A000DC220008202A04DB203A00FA02F10020B4
:1006B00070479140C2F1200320FA03F319439040A0
:1006C0007047202A06DBCB17203A41FA02F043EAB2
:1006D000E07306E041FA02F3D040C2F120029140FB
:1006E00008431946704710B5141E73F1000408DA68
:1006F000401C41F1000192185B411A4301D120F0E6
:10070000010010BD2DE9F04D92469B4611B1B1FAA2
:1007100081F202E0B0FA80F220329046FFF7C2FF89
:1007200004460F4640EA0A0041EA0B0153465A4686
:10073000084313D0114653EA010019D0C8F1400212
:100740005046FFF7EFFC05460E46504659464246D6
:10075000FFF7A8FF084305D0012004E020463946F2
:10076000BDE8F08D0020054346EAE0762C43374390
:100770000A986305E40AA0EB08000022FD0A44EA97
:1007800047540A3002D500200146E9E70105101957
:100790006941DDE9084500196941BDE8F04DA2E76E
:1007A000FEE7704772B6FEE770B5044600F094F9B4
:1007B0000546601C02D004480078044400F08CF91F
:1007C000401BA042FAD370BD100000202DE9F04379
:1007D00000233E4F0F2573E001229A400A406DD05E
:1007E00023F00304E619D6F808809C074FEA147C2E
:1007F00005FA0CF909EA0804DFF8D480404502D173
:100800004FF0000816E0DFF8CC80404502D14FF0F1
:1008100001080FE0DFF8C080404502D14FF0020828
:1008200008E0DFF8B880404502D14FF0030801E04E
:100830004FF0040808FA0CF8A04522D1284CD4F84F
:1008400000C02CEA020CC4F800C0241DD4F800C07B
:100850002CEA020CC4F800C0214C0C34D4F800C0BF
:100860002CEA020CC4F800C0241FD4F800C02CEA03
:10087000020CC4F800C0D6F808C02CEA090CC6F86F
:1008800008C0FF2A01D8064601E000F104064FEA3D
:10089000830401D9A4F12004D6F800C005FA04F8B5
:1008A0002CEA080C4FF0040808FA04F84CEA080C8B
:1008B000C6F800C0C46824EA0204C46003F101035E
:1008C00031FA03F288D1BDE8F08300000000014056
:1008D00000080140000C01400010014000140140DC
:1008E000000401402DE9F84FDFF8B8910024A9F188
:1008F000040B23460F2709F1040AABF1040EC9E0EB
:100900000125A5402A40AA427DD1674ED1F804C0F6
:10091000ACEB0608B44532D014DCBCF1030F3AD07E
:1009200009DCBCF1000F2AD0BCF1010F1CD0BCF1D6
:10093000020F31D11DE0BCF1110F17D0BCF1120F25
:100940002AD119E0B8F5881F19D006DCB8F5803F28
:1009500015D0B8F5801F1FD111E0B8F5001F0ED0DB
:10096000B8F5041F18D10AE0CB6815E0CB681B1D51
:1009700012E0CB6808330FE0CB680C330CE08B68D7
:100980002BB1012B4FF0080303D0456104E0042391
:1009900002E0056100E00023FF2A01D8064601E0DD
:1009A00000F104064FEA840501D9A5F12005D6F827
:1009B000008007FA05FC28EA0C0803FA05F548EA66
:1009C0000508C6F800804D68ED0062D5374DAE6968
:1009D00046F00106AE61AD6924F0030605F001059D
:1009E0000095334D06EB050CDCF80850A607360FD2
:1009F00007FA06F825EA0805DFF8B880404503D174
:100A00004FF0000817E044E0DFF8AC80404502D129
:100A10004FF001080FE0DFF8A480404502D14FF00D
:100A2000020808E0DFF89880404502D14FF0030843
:100A300001E04FF0040808FA06F848EA0508CCF887
:100A400008804D68D9F80060ED024D4601D5164387
:100A500000E096432E604D68DAF80060AD0255461E
:100A600001D5164300E096432E604D68DBF8006028
:100A7000AD035D4601D5164300E096432E604D68F8
:100A8000DEF80060ED03754601D5164300E096439D
:100A90002E60641C0D682A46E5407FF431AFBDE846
:100AA000F88F0000080401400000111000100240FF
:100AB0000000014000080140000C0140001001400E
:100AC000001401408068084000D0012070470AB13E
:100AD000016170470904FBE7014880687047000026
:100AE000100000200248816802781144816070473C
:100AF00010000020074810B5016841F010010160A6
:100B0000032000F067F80F2000F006F800F024F84A
:100B1000002010BD0020024070B50D4D04464FF47A
:100B20007A712878B1FBF0F00A490968B1FBF0F05E
:100B300000F0CEFA48B9102C07D200222146501EF0
:100B400000F028F800206C6070BD012070BD00002E
:100B5000100000201C0000200C4808B5816941F0FD
:100B600001018161816901F001010091C16941F0D8
:100B70008051C161C06900F0805000900448416814
:100B800021F0E06141F00071416008BD00100240B9
:100B900000000140F0B40E4B1B680C46C3F3022367
:100BA000C3F10705042D00D90425191D072901D219
:100BB000002300E0DB1E012606FA05F1491E214054
:100BC00099409E40761E16403143F0BC00F03EBE78
:100BD0000CED00E0064900F0070208684FF6FF033D
:100BE000184040EA0220034A1043086070470000A2
:100BF0000CED00E00000FA052DE9F0470F46050076
:100C000061D0434E306800F00700B84209D2306826
:100C100020F0070038433060306800F00700B84229
:100C200051D128683B4C810712D5400703D5606835
:100C300040F4E06060602878000703D5606840F405
:100C4000605060606068A96820F0F0000843606050
:100C50002878C00728D06868012810D021680228A9
:100C600010D0890700292EDA616821F003010143C1
:100C70006160FFF731FF804641F288390DE021685D
:100C80008903EFE78901EDE7FFF726FFA0EB0801F5
:100C9000494502D90320BDE8F0876068696800F023
:100CA0000C00B0EB810FEFD1306800F00700B842C4
:100CB0000BD9306820F0070038433060306800F00E
:100CC0000700B84201D00120E5E72878400705D5A4
:100CD0006068E96820F4E0600843606028780007F5
:100CE00006D56068296920F4605040EAC100606060
:100CF00000F038F86168084AC1F30311515CC8403C
:100D00000649086006480068FFF706FF0020C2E7B2
:100D10000020024000100240A22200081C00002017
:100D2000140000200448054900684968044AC1F3DA
:100D30000221515CC84070471C0000200010024096
:100D4000B22200080448054900684968044AC1F312
:100D5000C221515CC84070471C00002000100240B6
:100D6000B22200080E4A51680E4801F00C03042B11
:100D700011D0082B0FD10C48C1F38343C903C05CC9
:100D80000AD55168084AC1F34041921E515C054A98
:100D90005043B0FBF1F070470449484370470000EE
:100DA0000010024000127A009222000800093D0063
:100DB0002DE9F84F040070D02078C04DC00749D00D
:100DC0006868C0F38100012807D06868C0F381001B
:100DD000022809D16868C00306D52868800339D580
:100DE00060680028E7D035E06068B0F5803F0BD040
:100DF00010B1B0F5A02F11D0286820F48030286001
:100E0000286820F4802002E0286840F480302860C0
:100E1000606890B1FFF760FE06460AE0286840F47B
:100E200080202860F0E700BFFFF756FE801B642893
:100E300073D828688003F7D50CE0FFF74DFE06460F
:100E400005E000BFFFF748FE801B6428F0D8286843
:100E50008003F7D420789A4E80074FF001094FF0B5
:100E6000000839D5686810F00C0F07D06868C0F327
:100E70008100022809D16868C00306D42868800769
:100E800014D52069012808D110E02069B0B1C6F856
:100E90000090FFF721FE074605E00AE1FFF71CFE80
:100EA000C01B0228C4D828688007F7D52868616964
:100EB00020F0F80040EAC10028600DE0C6F800808C
:100EC000FFF70AFE074604E0FFF706FEC01B0228F4
:100ED00023D828688007F7D4207800072CD57948D4
:100EE000A169D9B1C0F80090FFF7F6FD074604E00C
:100EF000FFF7F2FDC01B02280FD8686A8007F7D5FC
:100F000071484FF4FA510068B0FBF1F0009000BF57
:100F10000098411E0091FAD20EE080E0C0F80080F7
:100F2000FFF7DAFD074604E0FFF7D6FDC01B0228F5
:100F300075D8686A8007F7D42078400760D5E869DB
:100F40000027C00008D4E86940F08050E861E869F3
:100F5000012700F0805000905C480168C90513D457
:100F60000168834641F480710160FFF7B5FD824658
:100F700006E000BFFFF7B0FDA0EB0A0064284ED8E2
:100F8000DBF80000C005F5D5E06801280AD008B1FB
:100F9000052813D0286A20F001002862286A20F072
:100FA000040002E0286A40F001002862E06841F293
:100FB000883B98B1FFF790FD82460BE0286A40F02D
:100FC00004002862EEE700BFFFF786FDA0EB0A01F0
:100FD00059455AD8286A8007F6D50CE0FFF77CFD02
:100FE000824605E0FFF778FDA0EB0A0159454CD891
:100FF000286A8007F6D41FB1E86920F08050E861C4
:10100000E06988B36968C1F38101022944D00228EC
:10101000C6F8608004D0FFF75FFD044638E034E096
:10102000FFF75AFD074604E0FFF756FDC01B0228F4
:101030002BD828688001F7D4206AB0F5803F05D10D
:101040006868A16820F4003008436860D4E90801AA
:101050000843696821F4741108436860C6F8609019
:10106000FFF73AFD044606E025E000BFFFF734FD38
:10107000001B022809D828688001F7D51BE000BFB3
:10108000FFF72AFD001B022802D90320BDE8F88FD4
:1010900028688001F4D40EE00128F7D06868226A3D
:1010A00000F48031914204D1616A00F470108842EA
:1010B00001D00120EAE70020E8E70000001002402C
:1010C00000004242800442421C00002000700040A8
:1010D00010B5401EB0F1807F01D3012010BD4FF04C
:1010E000E02460610F21601700F0B0FB0020A061D8
:1010F00007202061002010BD70B5040004D094F8D2
:101100004100002510B106E0012070BD84F8405078
:10111000204600F023F8242084F841002068C168AC
:1011200021F40051C160204600F0EAFA206801690C
:1011300021F4904101612068416921F02A01416157
:101140002068C16841F40051C1606564202084F8C2
:10115000410084F842006563002070BD30B585B061
:101160000024009401940294039400681449884276
:1011700024D11448816941F480418161816901F47D
:1011800080410491816941F00401816180690E4DC3
:1011900000F0040004904FF40070009002200190D1
:1011A0000320039069462846FFF79CFB2815CDE9EC
:1011B0000004694628460294FFF794FB05B030BD51
:1011C0000038014000100240000801402DE9F843BA
:1011D000044690F84100984616460D46202802D055
:1011E0000220BDE8F88385B17EB100206064212033
:1011F00084F84100FFF770FCA6848146E684A0686D
:101200002027B0F5805F02D003E00120E9E72069E4
:1012100010B12E4600250EE000260CE0802120466D
:1012200000F0CAFAA8B9C6B116F8010B21684860E7
:10123000E08C401EE084E08C4B464FF00002CDF87D
:1012400000800028EAD14FF04001204600F0B4FAB7
:1012500040B184F841700320C3E735F8020BC0F3B6
:101260000800E3E784F841700020BAE7FEE70000D9
:1012700070B5154D4FF48074002221462846FFF7C3
:1012800026FC6600002231462846FFF720FC052098
:1012900000F080FF002231462846FFF718FC0122AB
:1012A00021462846FFF713FC052000F073FF0022BB
:1012B00021462846FFF70BFC31462846BDE8704022
:1012C0000122FFF704BC0000000C014070B586B09D
:1012D0000020144E0090019002904FF4807403900F
:1012E00021463046FFF772FA650029463046FFF77F
:1012F0006DFA0D4A906940F0080090619069694666
:1013000000F0080004901120019003200390009445
:101310003046FFF7E7FA694630460095FFF7E2FAF4
:1013200006B070BD000C0140001002402DE9F041F4
:10133000194D4FF000084FF480760A24424631469A
:101340002846FFF7C4FB0122570239462846FFF71B
:10135000BEFB052000F01EFF012231462846FFF7A4
:10136000B6FB01E0641EE4B2052000F013FF39462D
:101370002846FFF7A7FB012808D04CB100223146D0
:101380002846FFF7A4FB4046BDE8F081002CE9D1D8
:1013900000F096F80120F7E7000C014070B5154DFC
:1013A0004FF48074002221462846FFF790FB660028
:1013B000002231462846FFF78AFB052000F0EAFEAE
:1013C000012231462846FFF782FB012221462846AA
:1013D000FFF77DFB052000F0DDFE002221462846B8
:1013E000FFF775FB31462846BDE870400122FFF744
:1013F0006EBB0000000C01402DE9F04701221C4E9D
:101400008046002557022C4639463046FFF75FFBE1
:10141000B946B715002239463046FFF758FB05207C
:1014200000F0B8FE012239463046FFF750FB052098
:1014300000F0B0FE6006040E49463046FFF742FB5E
:10144000012801D1641CE4B26D1CEDB2082DE1D37A
:10145000B8F1000F03D0B8F1010F03D004E0FFF79B
:1014600007FF01E0FFF79AFF2046BDE8F087000084
:10147000000C014070B50122104D1402214628468F
:10148000FFF725FB0122560231462846FFF71FFBD6
:10149000052000F07FFE002231462846FFF717FBAB
:1014A000052000F077FE002221462846FFF70FFBBB
:1014B000BDE87040052000F06DBE0000000C01404A
:1014C00070B5104D4FF48074002221462846FFF776
:1014D000FEFA6600002231462846FFF7F8FA01229C
:1014E00021462846FFF7F3FA052000F053FE0122BB
:1014F00031462846FFF7EBFABDE87040052000F0C2
:1015000049BE0000000C01402DE9F041134F054693
:1015100000244FF400784FF480760022314638469C
:10152000FFF7D5FA280601D5012200E00022414646
:101530003846FFF7CCFA012231463846FFF7C7FAA2
:10154000052000F027FE6806641C050EE4B2082C96
:10155000E3D3BDE8F041FFF7E9BE0000000C014015
:101560000D4808B5816941F010018161816901F080
:1015700010010091816941F020018161816901F0D0
:1015800020010091816941F004018161806900F0CE
:101590000400009008BD0000001002400C4810B587
:1015A0000A4901604FF4E1314160002181600C2261
:1015B000C160C0E904128161C161FFF79DFD00288F
:1015C00003D0BDE81040FFF7EDB810BD0038014072
:1015D00028000020FEE7FEE770470321202000F0EE
:1015E0001FB810B5FFF746FFB120FFF78DFF0020B1
:1015F000FFF702FF04020020FFF7FEFE0444002074
:10160000FFF7FAFE24020020FFF7F6FE2044040252
:101610000120FFF7F1FE0444FFF752FF204610BD02
:1016200070B50D460446FFF725FFB020FFF76CFFAD
:101630002046FFF769FF2846FFF766FFFFF740FFE8
:10164000BDE870406420FFF7AFB87047FFF74ABAB3
:1016500030B58FB028216846FEF77BFD14210AA81B
:10166000FEF777FD01210804CDE900100024029463
:1016700002250491CDE907504FF4E0100990684627
:10168000FFF796FB08B172B6FEE70F20CDE90A0519
:101690004FF48060CDE90C4002210AA80E94FFF7B8
:1016A000ABFA002801D072B6FEE70FB030BD70472C
:1016B00001680C3151E8002F22F4907241E80023B8
:1016C000002BF5D10168143151E8002F22F00102FE
:1016D00041E80023002BF5D1016B012909D10168F4
:1016E0000C3151E8002F22F0100241E80023002BBA
:1016F000F5D1202180F842100021016370470000DD
:1017000070B5044600680169E26821F44051114354
:1017100001612169A0680843616908432168CA68BA
:1017200041F20C639A430243CA6020684169A2698E
:1017300021F44071114341611E492068884202D161
:10174000FFF700FB01E0FFF7EDFA00EBC00101EB52
:101750000012606864218000B2FBF0F3B3FBF1F388
:101760006FF018067343B2FBF0F5B2FBF0F605EB31
:101770008305322303EB0515B5FBF1F5B6FBF1F656
:1017800005F0F00505EB0615B2FBF0F6B2FBF0F044
:10179000B0FBF1F06FF01802504306EB800003EB52
:1017A0000010B0FBF1F0216800F00F0028448860C1
:1017B00070BD0000003801402DE9F84398461746F7
:1017C0000D460446089E24E0701C22D0FFF784F9E1
:1017D000A0EB0800B0421AD8CEB12068C168490712
:1017E00017D5802D15D0402D13D00168C9430907A6
:1017F0000FD401680025406800902046FFF758FF8D
:101800000820606484F840500120BDE8F88303207C
:10181000FBE72068006835EA000004D00020B842E9
:10182000D2D00020F1E70120F9E7FEE70FB4054B25
:1018300010B503A9044A029800F0EAF810BC5DF85C
:1018400014FB0000C9210008240000200907090E2C
:10185000002804DB00F1E02080F80014704700F05D
:101860000F0000F1E02080F8141D704702E008C866
:10187000121F08C1002AFAD170477047002001E00A
:1018800001C1121F002AFBD1704700002DE9FF5F44
:1018900082B00021DDE90430020DDDF840B00343E1
:1018A00018D044F61050A2F2FF324243151411989A
:1018B00001281FD0A5EB0B00401C5FEA000A4FF087
:1018C00000064E4FDFF83891B046504615D5CAF1A4
:1018D000000413E0119801244AA3012801D16FEA02
:1018E0000B010298119AC0E90031C0E9024206B02A
:1018F000BDE8F09FCBF10000DFE704460021404A3D
:10190000491842EB0450CDE9001012E0E00707D07F
:1019100032463B4640464946FEF7A1FD8046894691
:1019200032463B4610461946FEF799FD06460F46DD
:101930006410002CEAD1DDE90401DDE90023BAF1ED
:10194000000F06DAFEF78BFD42464B46FEF787FD99
:1019500005E0FEF7F6FD42464B46FEF7F2FD044673
:101960000E460022284BFEF773FE03D84FF0FF30DF
:10197000014607E00022254B20463146FEF7C8FC11
:10198000FEF74EFE102409E0002C0ADB0A22002399
:10199000FEF756FC039B30321A55641E50EA0102D2
:1019A000F2D1641C039AC4F111031444119A012A60
:1019B00003D0012208430DD10AE0084304D00020DF
:1019C0004FF0110B119072E7A3EB0B056D1E0DE0AC
:1019D0005B4504DD4FF0000205F1010504E003DA88
:1019E0004FF00002A5F10105002AECD002981199F0
:1019F000C0E90231C0E9004579E700000000144069
:101A00000000F03F300000000000F0430000E03F25
:101A10002DE9FF4F95B09B468946064600250FE20B
:101A2000252877D100242746F84A0121059400E0B3
:101A3000044316F8013F203B01FA03F01042F7D1AE
:101A400030782A2811D06FF02F033078A0F13002BF
:101A5000092A16D8059A44F0020402EB820203EB2D
:101A600042021044761C0590EFE759F8042B0592CA
:101A7000002A03DA504244F40054059044F0020472
:101A8000761C30782E2816D116F8010F44F0040485
:101A90002A280DD06FF02F023078A0F13003092BE7
:101AA00009D807EB870302EB4303C718761CF3E75B
:101AB00059F8047B761C30786C280FD006DC4C2853
:101AC00017D068280DD06A2814D104E0742810D0EB
:101AD0007A280FD10DE044F400140AE044F4801495
:101AE00001E044F440147278824202D104F580147B
:101AF000761C761C307866280BD013DC582877D0FB
:101B000009DC002875D04528F6D04628F4D04728AF
:101B10001AD19DE118E0632835D0642879D0652872
:101B200012D195E1702873D008DC6728F1D06928BC
:101B30006FD06E280DD06F2806D1B5E073282CD059
:101B4000752875D0782874D05A46179990476D1C1F
:101B500075E1C4F30250022809D003280DD0D9F84A
:101B6000001004280DD00D6009F1040967E1D9F8CF
:101B70000010EA17C1E90052F6E7D9F800100D800D
:101B8000F2E70D70F0E719F8041B8DF80010002043
:101B90008DF80100EA46012003E059F804AB4FF04C
:101BA000FF3061074FF0000102D40DE008F10101A0
:101BB0008846B9420FDA8045F8DB1AF80810002988
:101BC000F4D108E008F1010188468142FADB1AF8F5
:101BD00008100029F6D105985B46A0EB08072146BE
:101BE0003846179A00F094FA284400EB080507E0FD
:101BF0004DE029E10DE01AF8010B5A46179990477C
:101C0000B8F10108F7D25B4621463846179A13E12E
:101C100042E00A220092C4F302524FF0000A022A64
:101C200008D059F804CB032A4FEAEC710AD00DE032
:101C300029E02AE009F1070121F00702F2E802C1D8
:101C4000914609E00FFA8CFC4FEAEC71042A03D1AB
:101C50004FFA8CFC4FEAEC71002907DA0A460021A2
:101C6000DCF1000C61EB02012D2202E0220504D51B
:101C70002B228DF80420012203E0E20701D020226C
:101C8000F7E7904659E00A2102E010220DE010210A
:101C90004FF0000A00910BE010224FF0000A44F0D0
:101CA00004040827009203E008224FF0000A009283
:101CB000C4F30252022A05D059F804CB0021032AAA
:101CC00008D009E009F1070121F00702F2E802C19A
:101CD000914605E01FFA8CFC042A01D10CF0FF0CA0
:101CE0004FF00008220728D5702806D0009B83F00B
:101CF000100353EA0A0305D00EE040228DF80420B9
:101D0000012208E05CEA010206D030228DF80420AE
:101D10008DF8050002229046009B83F0080353EAE9
:101D20000A030AD15CEA010201D1620705D530221B
:101D30008DF804204FF001087F1E582804D034A0ED
:101D400003900EA802900DE036A0F9E753466046D6
:101D5000009AFEF775FA84460398825C0298401E4A
:101D6000029002705CEA0100F0D1029806A9081AFC
:101D700000F1200A600702D524F4803400E0012736
:101D8000574502DDA7EB0A0000E0002000EB0A0146
:101D9000009005984144401A0590E00306D45B4644
:101DA0002146179A059800F0B3F90544002706E08C
:101DB00001A85A46C05D179990476D1C7F1C474586
:101DC000F6DBE0030CD55B462146179A059800F038
:101DD0009FF9054404E030205A46179990476D1C3E
:101DE0000099481E00900029F5DC08E0029802994D
:101DF0005A460078491C0291179990476D1CBAF118
:101E00000001AAF1010AF1DC65E1000009280100E6
:101E10003031323334353637383961626364656660
:101E20000000000030313233343536373839414222
:101E3000434445460000000000F058F90544761C74
:101E4000307800287FF4ECAD19B02846BDE8F08F5B
:101E5000620700D4062709F1070222F0070CFCE80C
:101E60000223E14603F000485FEA080C02D00FF2BB
:101E7000702C0DE05FEA045C02D50FF2682C07E0DD
:101E80005FEAC47C02D00FF2602C01E0AFF2700C6C
:101E90004FF0FF3823F00043CDF850C065280CD038
:101EA00006DC452809D046281DD047283DD13DE015
:101EB000662818D067287ED138E00021112F01DB79
:101EC000112000E0781CCDE9000106A90EA8FFF75B
:101ED000DDFCDDE90F010E9A03910021009207F16C
:101EE000010A04914DE04FF000400097CDE9011048
:101EF00006A90EA8FFF7CAFCDDE90F0203920E9BAC
:101F000011990022DDF80CA00093049211B9791CFC
:101F100000EB010AB7EB0A0004D4C0F1FF3007F16F
:101F2000010A0490AAEB0700019044E0012F00DAB7
:101F300001270021112F01DD112000E03846CDE9F5
:101F4000000106A90EA8FFF7A1FCDDE90F010E9A1A
:101F50000391002104910092BA4621070CD4039901
:101F6000514500DA8A46BAF1010F05DD009AAAF15F
:101F70000101515C302908D0B84202DA10F1040F97
:101F800006DA0121CDE9011015E0AAF10101E9E726
:101F9000002805DC049901440491AAEB000102E049
:101FA000411C514500DD8A460499401A401C0190AD
:101FB0004FF000400290200704D40198504501DB07
:101FC000CDF8048000208DF84F0002980DF14F07E6
:101FD000B0F1004F25D02B200E9002984FF0020850
:101FE00000280CDA404202902D200E9007E00A21D2
:101FF0000298FEF70FF93031029007F8011DB8F191
:102000000001A8F10108F2DC02980028EFD1791E46
:102010000E980870307800F0200040F0450007F876
:10202000020D12A8C01B00F107081498007800B137
:10203000012000EB0A01019801EBE0710598414491
:10204000401A401E0590E00306D45B462146179ACD
:10205000059800F05DF805441498007818B15A46C8
:10206000179990476D1CE00324D55B462146179ACB
:10207000059800F04DF805441CE00498002807DBA3
:10208000DDE90301884203DD0098405C179901E017
:10209000179930205A469047049805F10105401CD5
:1020A00004900198401E019004D12E205A461799A1
:1020B00090476D1CBAF10001AAF1010ADDDC05E0D0
:1020C00017F8010B5A46179990476D1CB8F100019B
:1020D000A8F10108F4DC5B462146179A0598ABE6A7
:1020E0002D0000002B000000200000002DE9F04131
:1020F000044600251E461746880404D405E03946E8
:102100002020B0476D1C641EF9D52846BDE8F0813B
:102110002DE9F041044600251E469046C80301D52E
:10212000302700E02027880404D505E041463846E2
:10213000B0476D1C641EF9D52846BDE8F08100004B
:1021400070B5FFF797F94720FFF7DEF90020FFF79A
:1021500053F904460120FFF74FF90546FFF7B0F9A0
:1021600005EB042080B2FEF73DF8BDE87040014960
:10217000FDF7FABF9A99993F10B50446FFF77AF92F
:102180004620FFF7C1F92046FFF7BEF9FFF798F99F
:10219000002010BD70B54FF0E024002265690949A8
:1021A000A36909784843A1699942FCD002D2A3EB04
:1021B000010302E0A5EB010633441A440B468242B8
:1021C000F1D370BD2000002013B540F6B83423468B
:1021D000012269460248FEF7F9FF0028F7D11CBD2D
:1021E00028000020FEF786FCFFF732FAFFF7B8F967
:1021F000FFF7D4F9FFF76AF8FFF7EFF9B420FEF71D
:10220000D3FA144C4FF4FA6513A0FFF70FFB10201C
:10221000FFF7B2FFB420FEF7C7FAFFF791FF206087
:10222000FDF7E5FF02460B460FA0FFF7FFFA082176
:102230002020FFF7F5F9FFF7D4F9010C82B2E06036
:10224000C4E901120BA0FFF7F1FA2846FEF7ACFA39
:10225000DAE70000000000200D0A2062656761696E
:102260006E200D0A00000000252E3266206C780DCD
:102270000A000000434F32203A2025302E32640DF0
:102280000A54564F43203A2025302E32640D0A005E
:10229000010202030405060708090A0B0C0D0E0FC4
:1022A00010100000000000000000010203040607F7
:1022B000080900000000010203040000DC220008FD
:1022C00000000020280000006C180008042300080B
:1022D00028000020480400007C18000800000000CE
:1022E00000000000000000000000000001000000ED
:1022F000100000000000000000127A000000000042
:0423000000000000D9
:04000005080000ED02
:00000001FF
