:020000040800F2
:1000000010090020010100089B1C00086518000869
:10001000991C00088507000815230008000000004F
:10002000000000000000000000000000992000080F
:100030008707000800000000A91F00089B20000897
:100040001B0100081B0100081B0100081B01000820
:100050001B0100081B0100081B0100081B01000810
:100060001B0100081B0100081B0100081B01000800
:100070001B0100081B0100081B0100081B010008F0
:100080001B0100081B0100081B0100081B010008E0
:100090001B0100081B0100081B0100081B010008D0
:1000A0001B0100081B0100081B0100081B010008C0
:1000B0001B0100081B0100081B0100081B010008B0
:1000C0001B0100081B0100081B0100081B010008A0
:1000D0001B010008D92200081B01000809230008A1
:1000E0001B0100081B0100081B010008DFF80CD0F1
:1000F00000F088FA00480047512C00081009002041
:100100000648804706480047FEE7FEE7FEE7FEE7B1
:10011000FEE7FEE7FEE7FEE7FEE7FEE7FD2000085C
:10012000ED000008202A04DB203A21FA02F0002129
:10013000704721FA02F3D040C2F1200291400843F7
:1001400019467047D2B201E000F8012B491EFBD2DC
:1001500070470022F6E710B513460A4604461946D2
:10016000FFF7F0FF204610BD96230022114600F055
:1001700063B800F0004230F000400AD0C10D01F534
:100180006071C0F3160042EA0151C20840071143F2
:10019000704700200146704730B50B4601460020ED
:1001A0002022012409E021FA02F59D4205D303FA39
:1001B00002F5491B04FA02F52844151EA2F10102BA
:1001C000F1DC30BD2DE9F05F0546002092469B46EC
:1001D00088460646814640241BE02846414647465D
:1001E0002246FFF79FFF53465A46C01A914110D34B
:1001F00011461846224600F017FA2D1A67EB01083F
:100200004F4622460120002100F00EFA17EB0009AC
:100210004E41201EA4F10104DFDC484631462A4647
:100220004346BDE8F09F0029A8BF7047401C490025
:1002300008BF20F00100704710B4B0FA80FC00FA4B
:100240000CF050EA010404BF10BC704749B1CCF176
:10025000200421FA04F411FA0CF118BF0121214302
:100260000843A3EB0C01CB1D4FEA00614FEA1020BD
:1002700042BF002010BC704700EBC350104400295F
:10028000A4BF10BC7047401C490008BF20F001000B
:1002900010BC70472DE9FE4F804681EA0300C00F75
:1002A0000C46009021F0004123F00045B8EB02001D
:1002B000A94105D24046214690461C460B460246BF
:1002C00023F00040104347D0270DC7F30A00C3F3C3
:1002D0000A510290401A019040286BDAC3F31300D0
:1002E00040F4801B0098924620B10023D2EB030A11
:1002F00063EB0B0B01985946C0F14002504600F0E9
:1003000093F906460D4650465946019A00F09BF96E
:1003100010EB08006141002487EA115284EAE77378
:100320001A4340D0009A62B3019A012A4FEA075259
:1003300015DC001B61EB02014FF0004202EA07529C
:10034000CDE90042001C41F5801132462B4600F0F9
:100350009BF903B0BDE8F08F40462146F9E7001B4A
:1003600061EB0201001C41F5801300185B4120186D
:10037000A2F5001747EB030140EAD570B6196D41AD
:1003800011E06D084FEA360645EAC0754FEA07529C
:10039000001B61EB0201001C41F5801149084FEA86
:1003A00030000019514132462B4603B0BDE8F04FF2
:1003B00000F05BB90098012240000023D0EB02025C
:1003C00063EBE073009821464FEAE074B8EB00005D
:1003D00061EB0401E9E783F000435BE781F0004152
:1003E00058E72DE9FE4F81EA030404F0004421F0B0
:1003F000004100944FF0000B23F0004350EA010449
:100400005ED052EA03045BD0C3F30A54C1F30A5529
:100410002C44A4F2F3340194A0FB0254C1F3130161
:1004200041F48011C3F3130343F4801301FB02442E
:1004300000FB034E840A970A44EA815447EA835733
:10044000A4FB076802958D0A05FB07854FEA932CEC
:1004500004FB0C542705029D4FEA065847EA16375D
:10046000B5EB08056EEB070C870E920E47EA811775
:1004700042EA8312A7FB0201B6EB0B0164EB000416
:100480002B0D43EA0C335E1844EB1C50DA46514600
:10049000E7FB0201C5F313044FEA0B3343EA14539D
:1004A0004FEA0432019C43EA0603A4F10C040294CF
:1004B000009CCDE900B400F0E7F803B0BDE8F08F90
:1004C00000200146F9E72DE9F04D81EA030404F02C
:1004D000004B21F0004514464FF0000A23F0004184
:1004E00050EA050220D054EA01021DD0C5F30A5794
:1004F0000246C5F31303C1F31300C1F30A5640F4D7
:10050000801543F48013A7EB0608101BD64608F2AB
:10051000FD3873EB050002D308F1010801E09218E1
:100520005B41B8F1000F03DA00200146BDE8F08D11
:1005300000204FF48011064684460EE0171B73EB33
:10054000050705D3121B63EB050306434CEA010CB8
:1005500049084FEA300092185B4150EA0107EDD19B
:1005600052EA030012D082EA040083EA050108433C
:1005700005D0101BAB4106D20122002306E0002269
:100580004FF0004302E06FF0010253101AEB060037
:100590004CEB085110EB0A0041EB0B01BDE8F04DAC
:1005A00000F063B8C1F30A52C1F3130140F2FF3304
:1005B00041F480119A4202DA00200146704740F26D
:1005C00033439A42A2F2334202DC5242FFF7AABD01
:1005D00000F02AB830B5041E71F1000404DB4FF0BE
:1005E0000044404264EB0101141E73F1000405DB7A
:1005F0001C464FF00043524263EB0403994208BF8C
:10060000904230BD064C074D06E0E06840F0010323
:1006100094E8070098471034AC42F6D3FFF76AFD20
:100620004435000864350008202A04DB203A00FA2B
:1006300002F1002070479140C2F1200320FA03F339
:10064000194390407047202A06DBCB17203A41FA25
:1006500002F043EAE07306E041FA02F3D040C2F14F
:100660002002914008431946704710B5141E73F1DB
:10067000000408DA401C41F1000192185B411A4362
:1006800001D120F0010010BD2DE9F04D92469B46AE
:1006900011B1B1FA81F202E0B0FA80F22032904654
:1006A000FFF7C2FF04460F4640EA0A0041EA0B0189
:1006B00053465A46084313D0114653EA010019D055
:1006C000C8F140025046FFF72DFD05460E46504644
:1006D00059464246FFF7A8FF084305D0012004E031
:1006E00020463946BDE8F08D0020054346EAE07615
:1006F0002C4337430A986305E40AA0EB0800002264
:10070000FD0A44EA47540A3002D500200146E9E7D1
:10071000010510196941DDE9084500196941BDE885
:10072000F04DA2E710B501F089F9462001F0C0F9BB
:10073000012001F0BDF9102001F0BAF9BDE8104028
:1007400001F098B970B501F079F9462001F0B0F9DF
:10075000102001F0ADF901F08DF9C82000F086F805
:1007600001F06CF9472001F0A3F9012001F028F90C
:100770000446002001F024F9054601F07BF945EA22
:10078000042070BDFEE7704772B6FEE710B590F822
:1007900021100022022905D00421816380F8202045
:1007A000012010BD01680B6823F00E030B60016887
:1007B0000B6823F001030B6090F84030C46B0121FB
:1007C00001FA03F3636080F8211080F820201046BE
:1007D00010BD000010B590F821100024022903D0AC
:1007E0000421816301243DE001680A6822F00E02C1
:1007F0000A6001680A6822F001020A601A4A016868
:10080000914201D1012121E0174A1432914201D1D4
:1008100010211BE0144A2832914201D1891515E0BC
:10082000114A3C32914201D189140FE00E4A5032F4
:10083000914202D14FF4803108E00B4A6432914278
:1008400002D14FF4801101E04FF08071064A083A5E
:100850005160012180F82110002180F82010416BA7
:1008600001B18847204610BD0800024070B504461B
:1008700000F094F90546601C02D004480078044456
:1008800000F08CF9401BA042FAD370BD0800002094
:100890002DE9F04300233E4F0F2573E001229A40DB
:1008A0000A406DD023F00304E619D6F808809C07AF
:1008B0004FEA147C05FA0CF909EA0804DFF8D48041
:1008C000404502D14FF0000816E0DFF8CC804045EB
:1008D00002D14FF001080FE0DFF8C080404502D19F
:1008E0004FF0020808E0DFF8B880404502D14FF031
:1008F000030801E04FF0040808FA0CF8A04522D1E3
:10090000284CD4F800C02CEA020CC4F800C0241D06
:10091000D4F800C02CEA020CC4F800C0214C0C34FE
:10092000D4F800C02CEA020CC4F800C0241FD4F88C
:1009300000C02CEA020CC4F800C0D6F808C02CEAAB
:10094000090CC6F808C0FF2A01D8064601E000F1EC
:1009500004064FEA830401D9A4F12004D6F800C0AC
:1009600005FA04F82CEA080C4FF0040808FA04F819
:100970004CEA080CC6F800C0C46824EA0204C4604B
:1009800003F1010331FA03F288D1BDE8F0830000DE
:100990000000014000080140000C0140001001402F
:1009A00000140140000401402DE9F84FDFF8B89130
:1009B0000024A9F1040B23460F2709F1040AABF127
:1009C000040EC9E00125A5402A40AA427DD1674E08
:1009D000D1F804C0ACEB0608B44532D014DCBCF14D
:1009E000030F3AD009DCBCF1000F2AD0BCF1010F93
:1009F0001CD0BCF1020F31D11DE0BCF1110F17D09A
:100A0000BCF1120F2AD119E0B8F5881F19D006DC05
:100A1000B8F5803F15D0B8F5801F1FD111E0B8F5AB
:100A2000001F0ED0B8F5041F18D10AE0CB6815E0FE
:100A3000CB681B1D12E0CB6808330FE0CB680C338A
:100A40000CE08B682BB1012B4FF0080303D04561FC
:100A500004E0042302E0056100E00023FF2A01D83E
:100A6000064601E000F104064FEA840501D9A5F12C
:100A70002005D6F8008007FA05FC28EA0C0803FADE
:100A800005F548EA0508C6F800804D68ED0062D516
:100A9000374DAE6946F00106AE61AD6924F003063C
:100AA00005F001050095334D06EB050CDCF8085008
:100AB000A607360F07FA06F825EA0805DFF8B8801A
:100AC000404503D14FF0000817E044E0DFF8AC8068
:100AD000404502D14FF001080FE0DFF8A480404507
:100AE00002D14FF0020808E0DFF89880404502D1BB
:100AF0004FF0030801E04FF0040808FA06F848EA4E
:100B00000508CCF808804D68D9F80060ED024D4624
:100B100001D5164300E096432E604D68DAF8006078
:100B2000AD02554601D5164300E096432E604D6850
:100B3000DBF80060AD035D4601D5164300E0964347
:100B40002E604D68DEF80060ED03754601D5164352
:100B500000E096432E60641C0D682A46E5407FF451
:100B600031AFBDE8F88F000008040140000011100B
:100B7000001002400000014000080140000C01404C
:100B800000100140001401408068084000D001209E
:100B900070470AB1016170470904FBE701488068AA
:100BA0007047000008000020024881680278114464
:100BB0008160704708000020074810B5016841F0C7
:100BC00010010160032000F075F80F2000F006F816
:100BD00000F024F8002010BD0020024070B50D4D3B
:100BE00004464FF47A712878B1FBF0F00A4909689D
:100BF000B1FBF0F000F017FC48B9102C07D200222E
:100C00002146501E00F036F800206C6070BD0120B7
:100C100070BD000008000020140000200C4808B53A
:100C2000816941F001018161816901F00101009157
:100C3000C16941F08051C161C06900F080500090ED
:100C40000448416821F0E06141F00071416008BD55
:100C50000010024000000140002809DB00F01F02E4
:100C6000012191404009800000F1E020C0F800110E
:100C700070470000F0B40E4B1B680C46C3F3022310
:100C8000C3F10705042D00D90425191D072901D238
:100C9000002300E0DB1E012606FA05F1491E214073
:100CA00099409E40761E16403143F0BC01F044BB93
:100CB0000CED00E0064900F0070208684FF6FF035C
:100CC000184040EA0220034A1043086070470000C1
:100CD0000CED00E00000FA052DE9F0470F46050095
:100CE00061D0434E306800F00700B84209D2306846
:100CF00020F0070038433060306800F00700B84249
:100D000051D128683B4C810712D5400703D5606854
:100D100040F4E06060602878000703D5606840F424
:100D2000605060606068A96820F0F000084360606F
:100D30002878C00728D06868012810D021680228C8
:100D400010D0890700292EDA616821F003010143E0
:100D50006160FFF723FF804641F288390DE021688A
:100D60008903EFE78901EDE7FFF718FFA0EB080122
:100D7000494502D90320BDE8F0876068696800F042
:100D80000C00B0EB810FEFD1306800F00700B842E3
:100D90000BD9306820F0070038433060306800F02D
:100DA0000700B84201D00120E5E72878400705D5C3
:100DB0006068E96820F4E060084360602878000714
:100DC00006D56068296920F4605040EAC10060607F
:100DD00000F038F86168084AC1F30311515CC8405B
:100DE0000649086006480068FFF7F8FE0020C2E7E1
:100DF00000200240001002402C35000814000020A2
:100E00000C0000200448054900684968044AC1F301
:100E10000221515CC84070471400002000100240BD
:100E20003C3500080448054900684968044AC1F394
:100E3000C221515CC84070471400002000100240DD
:100E40003C3500080E4A51680E4801F00C03042B93
:100E500011D0082B0FD10C48C1F38343C903C05CE8
:100E60000AD55168084AC1F34041921E515C054AB7
:100E70005043B0FBF1F0704704494843704700000D
:100E80000010024000127A001C35000800093D00E5
:100E90002DE9F84F040070D02078C04DC00749D02C
:100EA0006868C0F38100012807D06868C0F381003A
:100EB000022809D16868C00306D52868800339D59F
:100EC00060680028E7D035E06068B0F5803F0BD05F
:100ED00010B1B0F5A02F11D0286820F48030286020
:100EE000286820F4802002E0286840F480302860E0
:100EF000606890B1FFF752FE06460AE0286840F4A9
:100F000080202860F0E700BFFFF748FE801B6428C0
:100F100073D828688003F7D50CE0FFF73FFE06463C
:100F200005E000BFFFF73AFE801B6428F0D8286870
:100F30008003F7D420789A4E80074FF001094FF0D4
:100F4000000839D5686810F00C0F07D06868C0F346
:100F50008100022809D16868C00306D42868800788
:100F600014D52069012808D110E02069B0B1C6F875
:100F70000090FFF713FE074605E00AE1FFF70EFEBB
:100F8000C01B0228C4D828688007F7D52868616983
:100F900020F0F80040EAC10028600DE0C6F80080AB
:100FA000FFF7FCFD074604E0FFF7F8FDC01B022831
:100FB00023D828688007F7D4207800072CD57948F3
:100FC000A169D9B1C0F80090FFF7E8FD074604E039
:100FD000FFF7E4FDC01B02280FD8686A8007F7D529
:100FE00071484FF4FA510068B0FBF1F0009000BF77
:100FF0000098411E0091FAD20EE080E0C0F8008017
:10100000FFF7CCFD074604E0FFF7C8FDC01B022830
:1010100075D8686A8007F7D42078400760D5E869FA
:101020000027C00008D4E86940F08050E861E86912
:10103000012700F0805000905C480168C90513D476
:101040000168834641F480710160FFF7A7FD824685
:1010500006E000BFFFF7A2FDA0EB0A0064284ED80F
:10106000DBF80000C005F5D5E06801280AD008B11A
:10107000052813D0286A20F001002862286A20F091
:10108000040002E0286A40F001002862E06841F2B2
:10109000883B98B1FFF782FD82460BE0286A40F05A
:1010A00004002862EEE700BFFFF778FDA0EB0A011D
:1010B00059455AD8286A8007F6D50CE0FFF76EFD2F
:1010C000824605E0FFF76AFDA0EB0A0159454CD8BE
:1010D000286A8007F6D41FB1E86920F08050E861E3
:1010E000E06988B36968C1F38101022944D002280C
:1010F000C6F8608004D0FFF751FD044638E034E0C4
:10110000FFF74CFD074604E0FFF748FDC01B02282F
:101110002BD828688001F7D4206AB0F5803F05D12C
:101120006868A16820F4003008436860D4E90801C9
:101130000843696821F4741108436860C6F8609038
:10114000FFF72CFD044606E025E000BFFFF726FD73
:10115000001B022809D828688001F7D51BE000BFD2
:10116000FFF71CFD001B022802D90320BDE8F88F01
:1011700028688001F4D40EE00128F7D06868226A5C
:1011800000F48031914204D1616A00F47010884209
:1011900001D00120EAE70020E8E70000001002404B
:1011A00000004242800442421400002000700040CF
:1011B00070B5040009D0606A002540B12561656101
:1011C000A56294F8510040B10CE0012070BD606848
:1011D000B0F5827FF4D0E561F2E784F85050204604
:1011E00000F040F8022084F851002068016821F0E6
:1011F00040010160A088218900F4827001F404415B
:101200000843A18901F400610843217C01F0020137
:101210000843217D01F001010843218B01F4007195
:101220000843217F01F03801084394F8201001F0B1
:1012300080010843218D01F40051084321680860B2
:10124000A069042101EA1040216848602068C16952
:1012500021F40061C1616565012084F8510000201E
:1012600070BD000000B585B0002100910191029190
:10127000039100680F4988421AD10F48816941F4EF
:1012800080518161816901F480510491816941F04B
:10129000040181618069694600F004000490B02077
:1012A000009002200190032003900448FFF77CFB8C
:1012B00005B000BD003001400010024000080140B0
:1012C0002DE9F84F984616468A460446FFF766FC15
:1012D000814694F8510001281ED1BAF1000F73D055
:1012E000002E71D094F85000012815D0012784F801
:1012F0005070032084F8510000256565C4F830A0C3
:10130000A686E686A563A587E58765642564A0684B
:10131000B0F5004F03D00CE00220BDE8F88F206844
:10132000016821F0400101602068016841F48041BA
:10133000016020680168490603D4016841F040015A
:101340000160E068B0F5006F606803D048B3012E1B
:1013500027D047E008B1012E1FD1206B21680088FB
:10136000C86006E020688168890709D5216B098873
:10137000C160206B801C2063E08E401EE0860CE084
:10138000FFF70CFCA0EB0901414503D3B8F1FF3F87
:1013900003D035E0B8F1000F32D0E08E0028E1D163
:1013A00023E0206B21680078087306E020688168DC
:1013B00089070AD5216B09780173206B401C2063D3
:1013C000E08E401EE0860DE02BE0FFF7E7FBA0EB90
:1013D0000901414503D3B8F1FF3F03D010E0B8F154
:1013E000000F0DD0E08E0028E0D14A46414620464D
:1013F00000F0DBFD08B120206065A06830B109E095
:1014000084F8517084F85050032086E72068C16842
:101410008068009084F8517004F8505F606800287C
:10142000F3D0012079E710B5401EB0F1807F01D3E1
:10143000012010BD4FF0E02460610F21601700F023
:101440007BFF0020A06107202061002010BD7047B5
:1014500070470000F8B5016804460868CA684B691F
:1014600010F00F0F4FF0000559D003F0010602F401
:101470009077374365D0C10705D0D10503D5616C9E
:1014800041F001016164410705D5D90703D0616CC2
:1014900041F002016164810705D5D90703D0616C71
:1014A00041F004016164010707D502F020013143D6
:1014B00003D0616C41F008016164616C00293AD08D
:1014C000800604D5900602D5204600F047FE20682D
:1014D0004069616CC0F38010090700D460B32046F6
:1014E00000F015FE20684069400621D520681430C0
:1014F00050E8001F21F0400140E80012002AF5D119
:10150000E06BA8B16D494163E06BFFF763F9002818
:1015100011D0E06B416B01B0BDE8F0400847830695
:101520000FD593060DD52046BDE8F84000F016BE55
:101530002046FFF78DFFF8BD2046FFF789FF656461
:10154000F8BD266B2023012E7CD1C6067AD5D6069F
:1015500078D508684868009048694FF00206400650
:1015600040D5E16B086840680004000CE8D0A28D0B
:101570008242E5D9E085886920282DD020680C308A
:1015800050E8001F21F4807140E80012002AF5D1D4
:101590002068143050E8001F21F0010140E80012DB
:1015A000002AF5D12068143050E8001F21F04001D6
:1015B00040E80012002AF5D184F842302563206803
:1015C0000C3050E8001F21F0100140E80012002A02
:1015D000F5D1E06BFFF7DAF86663A08DE18D401A74
:1015E00081B22AE0A08DE18D401A81B2E08D002801
:1015F000A6D00029A4D022680C3252E8000F20F4B3
:10160000907042E80007002FF5D12068143050E8B0
:10161000002F22F0010240E80027002FF5D184F8C6
:101620004230256320680C3050E8002F22F0100271
:1016300040E80023002BF5D166632046FFF707FF43
:10164000F8BDFFE705062BD5150629D594F841000E
:101650002128F5D1A068B0F5805F01D12069B0B133
:10166000206A411C2162216800784860E08C401E9D
:101670000004000CE084E3D12068C16821F08001FF
:10168000C1602068C16841F04001C160D8E7206AAC
:101690000088C0F308004860206A801C2062E5E7EB
:1016A0004006CDD55006CBD5CA68204622F0400270
:1016B000CA6084F8413000F0C9F8C1E7FF20000893
:1016C00070B5040004D094F84100002510B106E084
:1016D000012070BD84F84050204600F023F82420FB
:1016E00084F841002068C16821F40051C16020469F
:1016F00000F096FD2068016921F4904101612068A5
:10170000416921F02A0141612068C16841F400511A
:10171000C1606564202084F8410084F8420065635C
:10172000002070BDF0B585B00024009401940294AF
:10173000039403682E482D4F02210322051501262C
:10174000BB4226D1836943F480438361836903F4F8
:1017500080430493836943F0040383618069254FC8
:1017600000F0040004900802CDE9000103926946EC
:101770003846FFF719F9CDE9005469463846029614
:10178000FFF712F9002211462520FFF773FA2520F2
:1017900027E0194FBB4226D1C36943F48023C361BC
:1017A000C36903F480230493836943F008038361CE
:1017B0008069CDE9005100F00800CDE903200F4D0C
:1017C00069462846FFF7F0F8E8148DE851006946AD
:1017D0002846FFF7E9F8002211462720FFF74AFACA
:1017E0002720FFF739FA05B0F0BD000000380140AE
:1017F000001002400008014000480040000C014079
:1018000000680349884202D10249012048707047AC
:10181000003801400500002090F84130202B01D015
:101820000220704779B172B101628284C2840021C2
:101830004164212180F841100068C16841F08001B5
:10184000C160002070470120704700000068034914
:10185000884202D1024901200870704700380140D7
:1018600005000020FEE7000070B50D4D4FF48074B8
:10187000002221462846FFF78CF900226100284605
:10188000FFF787F9642000F00DF801222146284671
:10189000FFF77FF9BDE87040642000F003B8000056
:1018A000000C014008B50090411E009101D308468C
:1018B000FAE708BD70B586B00020144E0090019084
:1018C00002904FF48074039021463046FEF7E0FF0B
:1018D000650029463046FEF7DBFF0D4A906940F06F
:1018E000080090619069694600F00800049011209A
:1018F00001900320039000943046FFF755F86946A5
:1019000030460095FFF750F806B070BD000C01405E
:10191000001002402DE9F041194D00244FF480766B
:10192000224631462846FFF734F90122570239464C
:101930002846FFF72EF96420FFF7B4FF0122314655
:101940002846FFF726F905E0641C642C10D00A2015
:10195000FFF7A8FF39462846FFF716F90028F3D10C
:10196000002231462846FFF714F90020BDE8F08137
:10197000002231462846FFF70CF94FF0FF30F5E71B
:10198000000C014070B50D4D4FF4807400222146CB
:101990002846FFF7FEF8012251022846FFF7F9F822
:1019A0006420FFF77FFF012221462846FFF7F1F868
:1019B000BDE870406420FFF775BF0000000C0140D7
:1019C0002DE9F04701221C4E8046002557022C4687
:1019D00039463046FFF7DDF8B946B71500223946DB
:1019E0003046FFF7D6F86420FFF75CFF0122394646
:1019F0003046FFF7CEF86420FFF754FF6006040E70
:101A000049463046FFF7C0F8012801D1641CE4B212
:101A10006D1CEDB2082DE1D3B8F1000F03D0B8F181
:101A2000010F03D004E0FFF71FFF01E0FFF7AAFF5B
:101A30002046BDE8F0870000000C014070B50C4C5A
:101A4000012211022046FFF7A4F80122550229467F
:101A50002046FFF79EF86420FFF724FF0022294666
:101A60002046FFF796F8BDE870406420FFF71ABFE4
:101A7000000C014070B50D4D4FF40074002221465A
:101A80002846FFF786F8012211022846FFF781F861
:101A90006420FFF707FF012221462846FFF779F867
:101AA000BDE870406420FFF7FDBE0000000C01405F
:101AB0002DE9F041144F054600244FF400784FF40F
:101AC0008076002231463846FFF763F86420FFF73E
:101AD000E9FE280601D5012200E0002241463846F1
:101AE000FFF757F86806050E012231463846FFF722
:101AF00050F86420FFF7D6FE641CE4B2082CE0D353
:101B0000BDE8F041FFF706BF000C01402DE9F041B0
:101B100086B000252E4800950195029503958169B0
:101B200041F010018161816901F010010491816926
:101B300041F020018161816901F0200104918169F6
:101B400041F004018161816901F00401049181691E
:101B500041F0080181618069012200F008001D4FF9
:101B60005403049021463846FFF713F8DFF86880E5
:101B7000012208214046FFF70CF800224021404690
:101B8000FFF707F8009401240326CDE902466946D1
:101B900038460194FEF708FF48208DE87100694639
:101BA0004046FEF701FFC020CDE900050B4D694618
:101BB00002942846FEF7F8FE01AA112082E851009F
:101BC00069462846FEF7F0FE06B0BDE8F081000049
:101BD000001002400010014000080140000C0140CC
:101BE000104810B50E4901604FF482714160002128
:101BF0008160C1604FF480220161C0E9051230228A
:101C0000C0E90721416281620A21C162FFF7D0FA6F
:101C1000002803D0BDE81040FEF7B6BD10BD00009F
:101C200000300140240400200C4810B50A4901602E
:101C30004FF4E1314160002181600C22C160C0E9B4
:101C400004128161C161FFF73BFD002803D0BDE8AC
:101C50001040FEF799BD10BD003801407C04002003
:101C60000C4810B50A4901604FF4E1314160002190
:101C700081600C22C160C0E904128161C161FFF77B
:101C80001FFD002803D0BDE81040FEF77DBD10BD4C
:101C900000480040C4040020FEE7FEE710B5022023
:101CA00000F0D0F83F2000F0DFF8002000F0B6F898
:101CB000002000F0C0F8A12000F0FCF8C82000F0DF
:101CC000F9F80021084600F077F87F2000F08AF844
:101CD000A42000F0EFF8A62000F0ECF80821002086
:101CE00000F08AF8012000F03DF80021012000F00A
:101CF00063F8BDE81040AF2000F0DCB870B51646C0
:101D00000D4604460DE02946204600F00FF8083540
:101D1000EDB27F2D01D9A41CE4B2072C00D9002418
:101D2000761C3278002AEED170BD000070B51446E2
:101D30000E46054600F0B4F80948082100EB0410EF
:101D4000044600F0D5F86D1CE8B2314600F0A8F862
:101D500004F10800BDE87040082100F0C9B8000097
:101D60001A2D000810B5040001D0012C0AD18D20D5
:101D700000F0A0F8102000EB8400BDE81040C0B2D5
:101D800000F098B810BD00000A4910B50978022982
:101D90000ED17F280CD8801CC4B204F00F0000F0D4
:101DA00089F8102000EB1410BDE8104000F082B854
:101DB00010BD00000400002070B50C46050001D0E5
:101DC000012D0ED10CB1012C0BD1DA2000F072F8EC
:101DD000280100EB4410BDE87040801CC0B200F048
:101DE00069B870BD10B50446812000F063F8204644
:101DF000BDE8104000F05EB870B50C4605460F28EF
:101E00000BD80F2C09D8D52000F054F805EB04109E
:101E1000BDE87040C0B200F04DB870BD10B50446CA
:101E20003F2807D8D32000F045F82046BDE81040F1
:101E300000F040B810BD3F2803D84030C0B200F0D9
:101E400039B8704710B5040003D0012C01D0022C22
:101E500007D1202000F02EF8204600F02BF8014892
:101E6000047010BD0400002010B504460F3831285E
:101E700007D2A82000F01EF82046BDE8104000F070
:101E800019B810BD05490978022905D1072803D8DA
:101E9000B030C0B200F00EB870470000040000205F
:101EA00010B50C46FFF7EEFF2046BDE81040FFF7E7
:101EB0006BBF000031B50C4C002240212046FEF7DC
:101EC00068FE002210212046FEF763FE4FF0FF332C
:101ED000012269460548FFF7F3F901221021204647
:101EE000FEF757FE38BD0000000801402404002022
:101EF00070B50E46040024D0124D01224021284620
:101F0000FEF747FE002210212846FEF742FE4FF062
:101F1000FF352B46324621460B48FFF7D1F9010029
:101F20000FD00AA000F0F8F92B46324621460648A9
:101F3000FFF7C6F9010004D0BDE870400EA000F024
:101F4000EBB970BD00080140240400205350492023
:101F50007472616E736D697373696F6E2066616907
:101F60006C65642077697468207374617475733A62
:101F70002025640A000000005350492072657472E5
:101F800079207472616E736D697373696F6E206608
:101F900061696C6564207769746820737461747515
:101FA000733A2025640A00007047F8B515460E46BE
:101FB0000B46009204460122022100F011F840B9BC
:101FC0003346002280212046009500F009F80028C1
:101FD00004D0606D40F0200060650320F8BD000073
:101FE0002DE9F8431E46914688460446089DFEF7B3
:101FF000D5FD401B351AFEF7D1FD07462548006880
:10200000C0F3CB30684338E0701C37D0FEF7C6FD14
:10201000C01BA84203D215B1009860B32CE0206821
:10202000416821F0E00141606068B0F5827F0BD12A
:10203000A068B0F5004F02D0B0F5806F04D12068E1
:10204000016821F040010160A06AB0F5005F09D18C
:102050002068016821F4005101602068016841F4A2
:1020600000510160012084F85100002084F85000E4
:102070000320BDE8F8830025401E00902068816899
:1020800038EA010004D000214945BDD10020F0E725
:102090000121F9E7140000207047FEF785BD30B537
:1020A0008FB028216846FEF754F814210AA8FEF7DD
:1020B00050F801210804CDE9001000240294022503
:1020C0000491CDE907504FF4E01009906846FEF7FF
:1020D000DFFE08B172B6FEE70F20CDE90A054FF426
:1020E0008060CDE90C4002210AA80E94FEF7F4FDB1
:1020F000002801D072B6FEE70FB030BD704710B5B2
:10210000406A0021C185C184FFF7A2F910BD0168B2
:102110000C3151E8002F22F4907241E80023002B8B
:10212000F5D10168143151E8002F22F0010241E895
:102130000023002BF5D1016B012909D101680C3175
:1021400051E8002F22F0100241E80023002BF5D1C6
:10215000202180F8421000210163704708B590F8F3
:102160004210222901D0022008BD82684FF480531A
:102170009A4201D1016921B1816A9A421BD04AB1C8
:102180000AE00268816A5268C2F308020A80816A22
:10219000891C08E0026972B10268526802F07F028D
:1021A0000A70816A491C8162C18D491E0904090CAB
:1021B000C18503D01BE002685268F1E70168CA6874
:1021C00022F02002CA600168CA6822F48072CA60E4
:1021D00001684A6922F001024A61202180F8421018
:1021E00000214163026B012A03D0FFF709FB0020A5
:1021F00008BD016301680C3151E8002F22F0100284
:1022000041E80023002BF5D101680A68D20602D507
:102210000A6849680091818DFFF719F9E7E7000026
:1022200070B5044600680169E26821F44051114329
:1022300001612169A0680843616908432168CA688F
:1022400041F20C639A430243CA6020684169A26963
:1022500021F44071114341611E492068884202D136
:10226000FEF7E0FD01E0FEF7CDFD00EBC00101EB64
:102270000012606864218000B2FBF0F3B3FBF1F35D
:102280006FF018067343B2FBF0F5B2FBF0F605EB06
:102290008305322303EB0515B5FBF1F5B6FBF1F62B
:1022A00005F0F00505EB0615B2FBF0F6B2FBF0F019
:1022B000B0FBF1F06FF01802504306EB800003EB27
:1022C0000010B0FBF1F0216800F00F002844886096
:1022D00070BD000000380140084810B50068800655
:1022E00006D50648001D00680549C0B200F006FD8D
:1022F000BDE810400348FFF7ADB8000000380140CA
:102300001C0000207C0400200148FFF7A3B8000057
:10231000C4040020FEE700000FB4054B10B503A96C
:10232000044A029800F0EAF810BC5DF814FB0000C3
:102330002D2C0008180000200907090E002804DBD6
:1023400000F1E02080F80014704700F00F0000F169
:10235000E02080F8141D704702E008C8121F08C171
:10236000002AFAD170477047002001E001C1121F16
:10237000002AFBD1704700002DE9FF5F82B00021E9
:10238000DDE90430020DDDF840B0034318D044F617
:102390001050A2F2FF3242431514119801281FD0A9
:1023A000A5EB0B00401C5FEA000A4FF000064E4F01
:1023B000DFF83891B046504615D5CAF1000413E055
:1023C000119801244AA3012801D16FEA0B01029858
:1023D000119AC0E90031C0E9024206B0BDE8F09FA1
:1023E000CBF10000DFE704460021404A491842EBE8
:1023F0000450CDE9001012E0E00707D032463B461A
:1024000040464946FDF7EDFF8046894632463B4649
:1024100010461946FDF7E5FF06460F466410002CEE
:10242000EAD1DDE90401DDE90023BAF1000F06DAA3
:10243000FDF7D7FF42464B46FDF7D3FF05E0FEF719
:1024400042F842464B46FEF73EF804460E4600224E
:10245000284BFEF7BFF803D84FF0FF30014607E0E6
:102460000022254B20463146FDF714FFFEF79AF86F
:10247000102409E0002C0ADB0A220023FDF7A2FE4B
:10248000039B30321A55641E50EA0102F2D1641CDB
:10249000039AC4F111031444119A012A03D00122B2
:1024A00008430DD10AE0084304D000204FF0110B7F
:1024B000119072E7A3EB0B056D1E0DE05B4504DD8B
:1024C0004FF0000205F1010504E003DA4FF00002CD
:1024D000A5F10105002AECD002981199C0E902315A
:1024E000C0E9004579E70000000014400000F03F1B
:1024F000300000000000F0430000E03F2DE9FF4FF6
:1025000095B09B468946064600250FE2252877D1DF
:1025100000242746F84A0121059400E0044316F8F8
:10252000013F203B01FA03F01042F7D130782A280E
:1025300011D06FF02F033078A0F13002092A16D89D
:10254000059A44F0020402EB820203EB42021044BB
:10255000761C0590EFE759F8042B0592002A03DA60
:10256000504244F40054059044F00204761C307844
:102570002E2816D116F8010F44F004042A280DD095
:102580006FF02F023078A0F13003092B09D807EB48
:10259000870302EB4303C718761CF3E759F8047B63
:1025A000761C30786C280FD006DC4C2817D06828B1
:1025B0000DD06A2814D104E0742810D07A280FD1E5
:1025C0000DE044F400140AE044F4801401E044F403
:1025D00040147278824202D104F58014761C761C75
:1025E000307866280BD013DC582877D009DC002817
:1025F00075D04528F6D04628F4D047281AD19DE159
:1026000018E0632835D0642879D0652812D195E187
:10261000702873D008DC6728F1D069286FD06E2845
:102620000DD06F2806D1B5E073282CD0752875D051
:10263000782874D05A46179990476D1C75E1C4F3F9
:102640000250022809D003280DD0D9F80010042820
:102650000DD00D6009F1040967E1D9F80010EA17FF
:10266000C1E90052F6E7D9F800100D80F2E70D70CD
:10267000F0E719F8041B8DF8001000208DF8010018
:10268000EA46012003E059F804AB4FF0FF30610740
:102690004FF0000102D40DE008F101018846B94273
:1026A0000FDA8045F8DB1AF808100029F4D108E0A9
:1026B00008F1010188468142FADB1AF80810002966
:1026C000F6D105985B46A0EB080721463846179AD5
:1026D00000F094FA284400EB080507E04DE029E1FA
:1026E0000DE01AF8010B5A4617999047B8F1010806
:1026F000F7D25B4621463846179A13E142E00A2298
:102700000092C4F302524FF0000A022A08D059F88E
:1027100004CB032A4FEAEC710AD00DE029E02AE04D
:1027200009F1070121F00702F2E802C1914609E030
:102730000FFA8CFC4FEAEC71042A03D14FFA8CFC9F
:102740004FEAEC71002907DA0A460021DCF1000C9F
:1027500061EB02012D2202E0220504D52B228DF827
:102760000420012203E0E20701D02022F7E790468F
:1027700059E00A2102E010220DE010214FF0000A7A
:1027800000910BE010224FF0000A44F004040827E7
:10279000009203E008224FF0000A0092C4F30252B4
:1027A000022A05D059F804CB0021032A08D009E0F9
:1027B00009F1070121F00702F2E802C1914605E0A4
:1027C0001FFA8CFC042A01D10CF0FF0C4FF000081A
:1027D000220728D5702806D0009B83F0100353EA07
:1027E0000A0305D00EE040228DF80420012208E003
:1027F0005CEA010206D030228DF804208DF8050035
:1028000002229046009B83F0080353EA0A030AD190
:102810005CEA010201D1620705D530228DF804205F
:102820004FF001087F1E582804D034A003900EA852
:1028300002900DE036A0F9E753466046009AFDF796
:10284000C1FC84460398825C0298401E029002708C
:102850005CEA0100F0D1029806A9081A00F1200AEA
:10286000600702D524F4803400E00127574502DDDB
:10287000A7EB0A0000E0002000EB0A010090059899
:102880004144401A0590E00306D45B462146179A5E
:10289000059800F0B3F90544002706E001A85A4660
:1028A000C05D179990476D1C7F1C4745F6DBE00320
:1028B0000CD55B462146179A059800F09FF9054410
:1028C00004E030205A46179990476D1C0099481E25
:1028D00000900029F5DC08E0029802995A46007839
:1028E000491C0291179990476D1CBAF10001AAF199
:1028F000010AF1DC65E100000928010030313233C2
:10290000343536373839616263646566000000002B
:102910003031323334353637383941424344454615
:102920000000000000F058F90544761C30780028BB
:102930007FF4ECAD19B02846BDE8F08F620700D4F3
:10294000062709F1070222F0070CFCE80223E14602
:1029500003F000485FEA080C02D00FF2702C0DE083
:102960005FEA045C02D50FF2682C07E05FEAC47CE2
:1029700002D00FF2602C01E0AFF2700C4FF0FF3884
:1029800023F00043CDF850C065280CD006DC452864
:1029900009D046281DD047283DD13DE0662818D0F3
:1029A00067287ED138E00021112F01DB112000E0E3
:1029B000781CCDE9000106A90EA8FFF7DDFCDDE9D2
:1029C0000F010E9A03910021009207F1010A049170
:1029D0004DE04FF000400097CDE9011006A90EA888
:1029E000FFF7CAFCDDE90F0203920E9B119900224A
:1029F000DDF80CA00093049211B9791C00EB010AD8
:102A0000B7EB0A0004D4C0F1FF3007F1010A0490CB
:102A1000AAEB0700019044E0012F00DA0127002112
:102A2000112F01DD112000E03846CDE9000106A993
:102A30000EA8FFF7A1FCDDE90F010E9A039100211A
:102A400004910092BA4621070CD40399514500DA4B
:102A50008A46BAF1010F05DD009AAAF10101515C25
:102A6000302908D0B84202DA10F1040F06DA012149
:102A7000CDE9011015E0AAF10101E9E7002805DC24
:102A8000049901440491AAEB000102E0411C514564
:102A900000DD8A460499401A401C01904FF0004026
:102AA0000290200704D40198504501DBCDF8048042
:102AB00000208DF84F0002980DF14F07B0F1004F44
:102AC00025D02B200E9002984FF0020800280CDA37
:102AD000404202902D200E9007E00A210298FDF757
:102AE0005BFB3031029007F8011DB8F10001A8F13D
:102AF0000108F2DC02980028EFD1791E0E980870C8
:102B0000307800F0200040F0450007F8020D12A8D0
:102B1000C01B00F107081498007800B1012000EBF9
:102B20000A01019801EBE07105984144401A401EEA
:102B30000590E00306D45B462146179A059800F0FD
:102B40005DF805441498007818B15A4617999047D3
:102B50006D1CE00324D55B462146179A059800F0CA
:102B60004DF805441CE00498002807DBDDE903016B
:102B7000884203DD0098405C179901E017993020E6
:102B80005A469047049805F10105401C04900198AD
:102B9000401E019004D12E205A46179990476D1C73
:102BA000BAF10001AAF1010ADDDC05E017F8010B1A
:102BB0005A46179990476D1CB8F10001A8F1010819
:102BC000F4DC5B462146179A0598ABE62D00000021
:102BD0002B000000200000002DE9F04104460025F4
:102BE0001E461746880404D405E039462020B04725
:102BF0006D1C641EF9D52846BDE8F0812DE9F04131
:102C0000044600251E469046C80301D5302700E043
:102C10002027880404D505E041463846B0476D1C9E
:102C2000641EF9D52846BDE8F081000013B5064CB6
:102C300000202070012269460448FEF7EDFD20784F
:102C40000028FCD001201CBD050000207C040020D1
:102C5000FDF7B2FFFFF723FAFEF758FFFEF7C0FFBC
:102C6000FEF7E2FFFEF7FCFFFFF718F8FEF722FE83
:102C7000FDF758FD002141220846FFF757F8592279
:102C800010210020FFF752F8412201210020FFF718
:102C90004DF80CA200210220FFF730F80D4C4FF444
:102CA0007A7500BFFDF74EFDFDF75EFA2060FDF777
:102CB00060FA02460B4608A0FFF72EFB2846FDF7F8
:102CC000D5FDEFE748656C6C6F20576F726C64211F
:102CD0000000000000000020696C6C756D696E6179
:102CE00074696F6E20696E74656E736974793D20C6
:102CF000252E3266206C780D0A000000D1F80024E1
:102D0000D1F80434521CC2F30902934204D0D1F822
:102D10000034C854C1F800247047000000000000CF
:102D20000000000000000000000000FEFE86FEFE25
:102D30000000000101010101000000FEFE86FEFE10
:102D40000000000101010101000000FEFE86FEFE00
:102D50000000000101010101000000FEFE86FEFEF0
:102D60000000000101010101000000FEFE86FEFEE0
:102D70000000000101010101000000FEFE86FEFED0
:102D80000000000101010101000000FEFE86FEFEC0
:102D90000000000101010101000000FEFE86FEFEB0
:102DA000000000010101010100000000000000001E
:102DB0000000000000000000000000000000000013
:102DC0000000000000000000000000000000000003
:102DD0000000000000000000000000FEFE86FEFE75
:102DE0000000000101010101000000FEFE86FEFE60
:102DF0000000000101010101000000FEFE86FEFE50
:102E00000000000101010101000000FEFE86FEFE3F
:102E10000000000101010101000000FEFE86FEFE2F
:102E20000000000101010101000000FEFE86FEFE1F
:102E30000000000101010101000000FEFE86FEFE0F
:102E40000000000101010101000000FEFE86FEFEFF
:102E50000000000101010101000000FEFE86FEFEEF
:102E60000000000101010101000000FEFE86FEFEDF
:102E70000000000101010101000000FEFE86FEFECF
:102E80000000000101010101000000FEFE86FEFEBF
:102E90000000000101010101000000FEFE86FEFEAF
:102EA0000000000101010101000000FEFE86FEFE9F
:102EB0000000000101010101000000FEFE86FEFE8F
:102EC0000000000101010101000000FEFE86FEFE7F
:102ED00000000001010101010000000000000000ED
:102EE00000000000000000000000000000000000E2
:102EF00000000000000000000000000000000000D2
:102F000000000000000000000000000000000000C1
:102F100000000000000000000000000000000000B1
:102F20000000000000000000000000BEBE00000025
:102F300000000001010000000000000E0E000E0E57
:102F40000000000000000000000000CCCCFECCFE21
:102F5000FECC0000000100010100008C8CB6B7F728
:102F600046000001010301010000000E0ECE30FEFC
:102F7000CEC00000000100010101004C4CB6B7B703
:102F800086000000000103030100000E0E00000097
:102F900000000000000000000000007878860000BB
:102FA000000000000001000000000086867800009C
:102FB0000000000101000000000000CCCC30FEFE4B
:102FC00030CC000000000101000000303030FEFE77
:102FD000303000000000010100000000008000000F
:102FE00000000002020100000000003030303030EC
:102FF00000000000000000000000008080000000D1
:103000000000000101000000000000C0C0300E0EF2
:103010000000000101000000000000F8F88686FEB4
:10302000F8000000000101010000008686FE80809B
:103030000000000101010101000000C6C6B6B6BED5
:103040008C000001010101010100008686B6B6FE78
:103050004C000001010101010000003E3E30FEFE77
:103060003000000000000101000000BEBEB6B6F650
:103070004600000101010101000000F8F8B6B6F6B3
:10308000C0000000000101010000000606C6363E37
:103090000E00000000010000000000CCCCB6B6FE1F
:1030A000CC000000000101010000001818B6B6FEB7
:1030B00078000000000101010000006C6C000000BD
:1030C000000000000000000000000080804C0000B4
:1030D000000000010100000000000030304C868636
:1030E00000000000000001010000006C6C6C6C6CC2
:1030F000000000000000000000000086864C303018
:1031000000000001010000000000000606B6363E87
:103110000C00000000010000000000787886BEBEB0
:10312000B608000000010101010000F8F83636FE83
:10313000F800000101000001010000FEFEB6B6FE2D
:1031400078000001010101010000007C7C8686CE30
:103150004C00000000010101000000FEFE8686FE1A
:103160007800000101010101000000FEFEB6B6B6C4
:103170000000000101010101000000FEFE363636AC
:103180000000000101000000000000787886B6F61B
:103190007600000000010101000000FEFE3030FE5C
:1031A000FE00000101000001010000FEFE00000021
:1031B000000000010100000000000060608080FE4F
:1031C0007E00000000010101000000FEFE304CCE38
:1031D0008600000101000001010000FEFE808080E9
:1031E0000000000101010101000000FEFE0C303C66
:1031F0000CFE000101000000000100FEFE0C30F09A
:10320000C0FE000101000000000100F8F88686FE03
:10321000F800000000010101000000FEFE36363E0D
:103220000C00000101000000000000F8F88686FE96
:10323000F800000000010103020000FEFE3676FEE9
:103240008C000001010000010100008C8CB6B6F674
:1032500046000001010101010000000606FE06060D
:1032600000000000000100000000007E7E8080FE63
:103270007E000000000101010000000E0E7080F0D1
:10328000700E0000000001010000007E7E807CFCCA
:10329000807E00000001000101000086864C307C29
:1032A0004C8600010100000000010006060CF0FC45
:1032B0000C06000000000101000000C6C6B68E8E9C
:1032C0000000000101010101000000FEFE86000077
:1032D00000000001010100000000000E0E30C0C01F
:1032E00000000000000001010000008686FE0000D2
:1032F00000000001010100000000000606010606B2
:1033000000000000000000000000000000000000BD
:1033100000000002020202020200000000000000A1
:103320000000000000000000000000F8F83636FE43
:10333000F800000101000001010000FEFEB6B6FE2B
:1033400078000001010101010000007C7C8686CE2E
:103350004C00000000010101000000FEFE8686FE18
:103360007800000101010101000000FEFEB6B6B6C2
:103370000000000101010101000000FEFE363636AA
:103380000000000101000000000000787886B6F619
:103390007600000000010101000000FEFE3030FE5A
:1033A000FE00000101000001010000FEFE0000001F
:1033B000000000010100000000000060608080FE4D
:1033C0007E00000000010101000000FEFE304CCE36
:1033D0008600000101000001010000FEFE808080E7
:1033E0000000000101010101000000FEFE0C303C64
:1033F0000CFE000101000000000100FEFE0C30F098
:10340000C0FE000101000000000100F8F88686FE01
:10341000F800000000010101000000FEFE36363E0B
:103420000C00000101000000000000F8F88686FE94
:10343000F800000000010103020000FEFE3676FEE7
:103440008C000001010000010100008C8CB6B6F672
:1034500046000001010101010000000606FE06060B
:1034600000000000000100000000007E7E8080FE61
:103470007E000000000101010000000E0E7080F0CF
:10348000700E0000000001010000007E7E807CFCC8
:10349000807E00000001000101000086864C307C27
:1034A0004C8600010100000000010006060CF0FC43
:1034B0000C06000000000101000000C6C6B68E8E9A
:1034C00000000001010101010000003030CE8686BD
:1034D0000000000000010101000000FFFF000000EB
:1034E00000000003030000000000008686CE30309C
:1034F00000000001010100000000000C0C020C0E95
:1035000002000000000000000000FF000000FF00BB
:103510000000010101010100000001020203040595
:10352000060708090A0B0C0D0E0F10100000000012
:103530000000000001020304060708090000000063
:103540000102030464350008000000201C00000094
:1035500058230008803500081C000020F4080000F3
:1035600068230008000000000200000001000000C5
:10357000100000000000000000127A0000000000AF
:04000005080000ED02
:00000001FF
