:020000040800F2
:100000003808002001010008090100080B01000860
:100010000D0100080F010008110100080000000098
:1000200000000000000000000000000013010008B4
:100030001501000800000000170100081901000860
:100040001B0100081B0100081B0100081B01000820
:100050001B0100081B0100081B0100081B01000810
:100060001B0100081B0100081B0100081B01000800
:100070001B0100081B0100081B0100081B010008F0
:100080001B0100081B0100081B0100081B010008E0
:100090001B0100081B0100081B0100081B010008D0
:1000A0001B0100081B0100081B0100081B010008C0
:1000B0001B0100081B0100081B0100081B010008B0
:1000C0001B0100081B0100081B0100081B010008A0
:1000D0001B010008910900081B0100081B01000812
:1000E0001B0100081B0100081B010008DFF80CD0F1
:1000F00000F02EF800480047010F000838080020E3
:100100000648804706480047FEE7FEE7FEE7FEE7B1
:10011000FEE7FEE7FEE7FEE7FEE7FEE7310900083F
:10012000ED00000830B50B460146002020220124D6
:1001300009E021FA02F59D4205D303FA02F5491BB5
:1001400004FA02F52844151EA2F10102F1DC30BDCB
:10015000064C074D06E0E06840F0010394E8070014
:1001600098471034AC42F6D3FFF7C4FF38100008AC
:10017000581000082DE9F041024600250026002015
:1001800000230024002791F803C00CF00F0591F81C
:1001900003C00CF0100CBCF1000F03D091F802C0AA
:1001A0004CEA050591F800C0BCF1000F31D014688D
:1001B00000202BE04FF0010C0CFA00F3B1F800C066
:1001C0000CEA03069E4220D183004FF00F0C0CFA7C
:1001D00003F7BC4305FA03FC4CEA040491F803C09E
:1001E000BCF1280F06D14FF0010C0CFA00FCC2F84C
:1001F00014C00AE091F803C0BCF1480F05D14FF0DC
:10020000010C0CFA00FCC2F810C0401C0828D1D325
:100210001460B1F800C0BCF1FF0F34DD5468002059
:100220002EE000F1080C4FF0010808FA0CF3B1F8C9
:1002300000C00CEA03069E4221D183004FF00F0C50
:100240000CFA03F7BC4305FA03FC4CEA040491F8EA
:1002500003C0BCF1280F05D100F1080C08FA0CF816
:10026000C2F8148091F803C0BCF1480F07D100F127
:10027000080C4FF0010808FA0CF8C2F81080401C76
:100280000828CED35460BDE8F08102460020936870
:100290000B400BB1012000E0002070470161704766
:1002A0004FF6FF710180022181700421C1707047F7
:1002B0000AB1016100E041617047000038B50025D6
:1002C0000A2400224FF480712448FFF7F1FF012235
:1002D00051022248FFF7ECFF4FF40070ADF8000028
:1002E00048208DF8030069461C48FFF743FF0520AE
:1002F00000F0C0FD012211021848FFF7D9FF0520C8
:1003000000F0B8FD04E0601EC4B2052000F0B2FDAC
:100310004FF400711148FFF7B8FF012801D1002CFC
:10032000F1D1002C03DC00F097F8012038BD002249
:100330004FF480710948FFF7BBFF4FF40070ADF830
:10034000000014208DF8030003208DF80200694698
:100350000248FFF70FFF00BF2846E7E7000C014007
:1003600038B504464FF40070ADF8000014208DF845
:10037000030003208DF8020069461948FFF7FAFED2
:1003800000224FF480711648FFF792FF00224FF4CD
:1003900000711348FFF78CFF052000F06BFD34B9A6
:1003A00000224FF400710E48FFF782FF04E00122A3
:1003B00051020B48FFF77CFF012211020848FFF7AA
:1003C00077FF052000F056FD00224FF480710448AD
:1003D000FFF76EFF012251020148FFF769FF38BDA8
:1003E000000C014008B54FF40070ADF80000142077
:1003F0008DF8030003208DF8020069461548FFF7C9
:10040000B9FE00224FF480711248FFF751FF01201E
:1004100000F030FD012251020E48FFF749FF012292
:1004200011020C48FFF744FF052000F023FD0022D5
:100430004FF400710748FFF73BFF052000F01AFD5D
:1004400000224FF480710348FFF732FF052000F0CF
:1004500011FD08BD000C014008B54FF40070ADF867
:10046000000014208DF8030003208DF80200694677
:100470000F48FFF77FFE00224FF480710C48FFF712
:1004800017FF00224FF400710948FFF711FF012206
:1004900011020748FFF70CFF052000F0EBFC0122DA
:1004A00051020348FFF704FF052000F0E3FC08BDFC
:1004B000000C014070B5002100230F22C47804B362
:1004C000154C246804F4E064C4F5E064210AC1F129
:1004D0000403CA40447804FA03F1847814402143A9
:1004E00009010E4C0678A155047804F01F0501247B
:1004F000AC4005786D11AD0005F1E025C5F800416F
:1005000009E0047804F01F050124AC40044D06788E
:10051000761145F8264070BD0CED00E000E400E0E7
:1005200080E100E029B1064A12690243044B1A61D6
:1005300004E0034A12698243014B1A6170470000CC
:100540000010024029B1064A92690243044B9A61A5
:1005500004E0034A92698243014B9A6170470000AC
:100560000010024029B1064AD2680243044BDA6007
:1005700004E0034AD2688243014BDA60704700000E
:100580000010024030B500210022002400232D4D30
:100590006D6805F00C0121B1042905D0082923D18B
:1005A00005E0294D056022E0274D05601FE0254D3F
:1005B0006D6805F47012234D6D6805F480340225D2
:1005C00005EB92421CB9214D554305600BE01D4DD2
:1005D0006D6805F400351DB11C4D5543056002E002
:1005E000194D5543056002E0174D056000BF00BF7F
:1005F000144D6D6805F0F0010909154D6B5C056837
:10060000DD4045600F4D6D6805F4E061090A104D4D
:100610006B5C4568DD4085600A4D6D6805F460518E
:10062000C90A0B4D6B5C4568DD40C560054D6D68C2
:1006300005F44041890B074D6B5CC568B5FBF3F5CC
:10064000056130BD0010024000127A0000093D0033
:100650001C0000202C00002038B500244FF400704E
:10066000ADF8000048208DF8030069461748FFF7F1
:1006700081FD00251FE000224FF480711348FFF731
:1006800017FE052000F0F6FB012211020F48FFF7CC
:100690000FFE052000F0EEFB6006040E4FF4007123
:1006A0000A48FFF7F2FD08B144F00104052000F00C
:1006B000E1FB681CC5B2082DDDDB00224FF4807120
:1006C0000248FFF7F5FD204638BD0000000C014050
:1006D00008B501210820FFF735FF4FF44070ADF851
:1006E000000014208DF8030003208DF802006946F5
:1006F0000448FFF73FFD4FF440710248FFF7CEFD7D
:1007000008BD0000000C014010B5FFF7E1FF032118
:10071000202000F02FF810BD70B5FFF763FEB12068
:1007200000F042F8FFF7CAFDFFF796FF04460020ED
:10073000FFF716FE2402FFF78FFF04440020FFF7A7
:100740000FFEFFF789FF05460020FFF709FE00BFF7
:100750002402FFF781FF04440020FFF701FE24027A
:10076000FFF77AFF04440120FFF7FAFDFFF774FE5C
:10077000204670BD70B505460C46FFF733FEB0202D
:1007800000F012F8FFF79AFD284600F00DF8FFF789
:1007900095FD204600F008F8FFF790FDFFF75CFE9E
:1007A000642000F05DFB70BD38B5044600254FF4B1
:1007B0000070ADF8000014208DF8030003208DF8C0
:1007C000020069461548FFF7D5FC00224FF48071FE
:1007D0001248FFF76DFD00BF1CE0E2094FF4007105
:1007E0000E48FFF765FD012000F044FB01221102D5
:1007F0000A48FFF75DFD052000F03CFB00224FF4A6
:1008000080710648FFF754FD052000F033FB6006B9
:10081000040E6D1C082DE0DB38BD0000000C01400B
:1008200010B500F001F810BD0CB50020019000904B
:100830003348006840F480303149086000BF3048D8
:10084000006800F4003000900198401C019000986E
:1008500018B90198B0F5A06FF1D12948006800F4EB
:10086000003010B10120009001E0002000900098BD
:10087000012843D12348006840F010002149086056
:100880000846006820F0070008600846006840F04D
:10089000020008601A4840681949486008464068E4
:1008A00048600846406840F48060486008464068F8
:1008B00020F47C1048600846406840F4E810486026
:1008C0000846006840F08070086000BF0C4800686F
:1008D00000F000700028F9D00948406820F00300BB
:1008E000074948600846406840F00200486000BF81
:1008F0000348406800F00C000828F9D10CBD000046
:100900000010024000200240042808D14FF0E021EE
:10091000096941F004014FF0E022116107E04FF056
:10092000E021096921F004014FF0E02211617047D4
:1009300010B51348006840F00100114908600846EE
:100940004068104908400E494860084600680E4952
:1009500008400B4908600846006820F480200860C1
:100960000846406820F4FE0048604FF41F0088608D
:10097000FFF756FF4FF000600449086010BD00000B
:10098000001002400000FFF8FFFFF6FE08ED00E057
:1009900008B540F22551174800F0B3F8012810D1EE
:1009A000144800F069F9C1B2134802880088401C5D
:1009B000114B18801148815440F225510D4800F028
:1009C0002AF840F224410B4800F09BF801280FD18F
:1009D0000848008800900748001D0088009000200B
:1009E0000649054A1288885401200549087000BF4D
:1009F00008BD000000380140140000203400002031
:100A00001600002001F40072B2F5007F00D100BF93
:100A1000CA430280704710B50022002340F66A14D2
:100A2000A14200D100BF0A1201249440A3B2DC43CA
:100A3000048010BD21B1828942F40052828104E019
:100A400082894DF6FF731A408281704710B50446C3
:100A50002048844209D101218803FFF783FD00214A
:100A60004FF48040FFF77EFD32E01B48844209D1FD
:100A700001214804FFF756FD00214FF40030FFF735
:100A800051FD25E01548844209D101218804FFF772
:100A900049FD00214FF48020FFF744FD18E0104885
:100AA000844209D10121C804FFF73CFD00214FF425
:100AB0000020FFF737FD0BE00A48844208D10121EE
:100AC0000805FFF72FFD00214FF48010FFF72AFDE6
:100AD00010BD0000003801400044004000480040C4
:100AE000004C00400050004002460020B1F5007F5D
:100AF00000D100BF13880B400BB1012000E00020A3
:100B0000704770B50246002400230025002040F6FF
:100B10006A16B14200D100BFC1F3421501F01F03B4
:100B2000012606FA03F3012D02D19689334006E02F
:100B3000022D02D1168A334001E0968A33400C120E
:100B4000012606FA04F41688344013B10CB10120D2
:100B500000E0002070BDF0B503460024002600250B
:100B6000002040F66A17B94200D100BF1846C1F311
:100B7000421401F01F06012707FA06F5012C01D1E6
:100B80000C3004E0022C01D1103000E014301AB116
:100B900007682F43076002E00768AF430760F0BDB6
:100BA0002DE9F04786B005460E460024A24600BF58
:100BB000A1460027B08900B100BF2F462C8A4CF611
:100BC000FF700440F08804432C82AC894EF6F31089
:100BD0000440B08831890843718908430443AC81DB
:100BE000AC8A4FF6FF400440B0890443AC8201A8B0
:100BF000FFF7C8FC1F48874202D1DDF810A001E0D2
:100C0000DDF80CA0A88900F4004040B10AEBCA004E
:100C100000EB0A1031684900B0FBF1F807E00AEB7D
:100C2000CA0000EB0A1031688900B0FBF1F86420BB
:100C3000B8FBF0F004012009642101FB1089A889A8
:100C400000F4004040B1322000EBC900B0FBF1F0ED
:100C500000F00700044308E0322000EB0910642193
:100C6000B0FBF1F000F00F0004432C8106B0BDE8AA
:100C7000F08700000038014001468888C0F3080072
:100C80007047C1F30802828070474FF4165101602B
:100C900000218180C18001810C214181002181815D
:100CA000704700000FB4054B10B503A9044A029821
:100CB00000F018F810BC5DF814FB0000DD0E000811
:100CC0003000002002E008C8121F08C1002AFAD133
:100CD00070477047002001E001C1121F002AFBD1BC
:100CE000704700002DE9FF4F89B09B460446002560
:100CF00006E025280BD05A460B999047641C6D1CC2
:100D000020780028F5D10DB02846BDE8F08F0027E7
:100D1000B8460122474900E0074314F8013F203B51
:100D200002FA03F00842F7D120782E2819D114F8DE
:100D3000010F47F004072A280ED06FF02F02207809
:100D4000A0F1300109290CD808EB880102EB410120
:100D500000EB0108641CF2E70A98641C50F8048B4D
:100D60000A9020780028CED0642808D0692806D0C0
:100D700075281ED05A460B9990476D1C58E00A9969
:100D80004FF00A0901C90A91002802DA40422D21D8
:100D900002E0390504D52B218DF82010012103E054
:100DA000F90704D02021F7E78A4608AE0DE00021BC
:100DB000FAE70A994FF00A0901C90A91F7E749468B
:100DC000FFF7B0F9303106F8011D0028F7D1ADEB7F
:100DD000060000F12009780701D44FF00108C8454A
:100DE00002DDA8EB090000E000208046002706E0B5
:100DF00008A85A46C05D0B9990476D1C7F1C57454B
:100E0000F6DB04E030205A460B9990476D1CB8F190
:100E10000001A8F10108F5DC05E016F8010B5A46BF
:100E20000B9990476D1CB9F10001A9F10109F4DC9F
:100E3000641C65E70928010010B56FF00400FFF796
:100E400063FD044800680449B0FBF1F00349086001
:100E500010BD00000000002000127A0018000020E1
:100E600010B504464FF47A7104FB01F000F002F86B
:100E700010BD000010B5184B1B6800FB03F20128E1
:100E800005D1A2F108034FF0E024636104E0A2F170
:100E90000A034FF0E024636100234FF0E024A361D4
:100EA00023461B6943F00103236100BF4FF0E02399
:100EB000196901F001031BB101F48033002BF5D057
:100EC0004FF0E0231B6923F001034FF0E02423617E
:100ED0000023A36110BD00001800002070B5044677
:100EE0000D46E1B20548FFF7CCFE00BF8021034864
:100EF000FFF7FAFD0028F9D0204670BD0038014008
:100F0000FFF79AFF4FF4E13000F028F8FFF7FCFB01
:100F10006420FFF7A5FF11E008212020FFF72AFC3D
:100F2000FFF7FAFB0446250CA6B23246294604A078
:100F3000FFF7B8FE4FF47A70FFF792FFECE700007E
:100F4000434F32203A2025302E32640D0A54564F3A
:100F500043203A2025302E32640D0A0010B586B0A9
:100F60000446012144F20500FFF7ECFA05A8FFF75B
:100F700097F94FF40070ADF8140018208DF81700A1
:100F800003208DF8160005A92948FFF7F3F805A8F6
:100F9000FFF786F94FF48060ADF8140004208DF857
:100FA000170005A92248FFF7E5F801218803FFF79C
:100FB000C9FA2048FFF74AFD01A8FFF766FE019431
:100FC0000020ADF80800ADF80A00ADF80C000C20C8
:100FD000ADF80E000020ADF8100001A91548FFF78C
:100FE000DFFD20211348FFF70DFD10211148FFF709
:100FF00009FD012240F225510E48FFF7ACFD012208
:1010000040F224410B48FFF7A6FD01210948FFF7F4
:1010100011FD25208DF8000001208DF801008DF8CC
:1010200002008DF803006846FFF744FA06B010BDD1
:10103000000801400038014058100008000000205E
:1010400034000000C40C00088C100008340000209C
:1010500004080000D40C000800A24A0400000000AC
:101060000000000001020304060708090000000058
:10107000000000000000000001020304010203045C
:0C10800006070809020406080000000032
:04000005080000ED02
:00000001FF
